:100000000C9463000C948B000C948B000C94770779
:100010000C9477070C9477070C948B000C948B004E
:100020000C948B000C948B000C948B000C948B0024
:100030000C948B000C948B000C948B000C948B0014
:100040000C942D070C948B000C94FB060C94D50695
:100050000C948B000C948B000C948B000C948B00F4
:100060000C94EF070C948B00000000002400270084
:100070002A0000000008000201000003040700003D
:1000800000000000000000000000230026002900FE
:1000900000000000250028002B00040404040404D0
:1000A0000404020202020202030303030303010227
:1000B00004081020408001020408102001020408F6
:1000C00010200E09CC0C11241FBECFEFD8E0DEBFEC
:1000D000CDBF23E0A4EEB1E001C01D92AF3CB2075A
:1000E000E1F711E0A0E0B1E0E2EDFEE102C0059031
:1000F0000D92A43EB107D9F710E0C2E6D0E004C0EB
:100100002197FE010E945B0DC136D107C9F70E94FD
:10011000EB090C945C0F0C94000008950895089569
:10012000AF92BF92CF92DF92EF92FF920F931F9305
:10013000CF93DF936C017B018B01040F151FEB0143
:100140005E01AE18BF08C017D10759F06991D601FA
:10015000ED91FC910190F081E02DC6010995892B6C
:1001600079F7C501DF91CF911F910F91FF90EF902B
:10017000DF90CF90BF90AF900895FC01538D448DD8
:10018000252F30E0842F90E0821B930B541710F042
:10019000CF96089501970895FC01918D828D98174F
:1001A00061F0A28DAE0FBF2FB11D5D968C91928D27
:1001B0009F5F9F73928F90E008958FEF9FEF089558
:1001C0002FB7F8948091E7029091E802A091E9029C
:1001D000B091EA022FBF8093F3029093F402A093B0
:1001E000F502B093F6028BEE92E00E94CC0097FFEE
:1001F00026C02FB7F8948091E7029091E802A09171
:10020000E902B091EA022FBF4091F3025091F4024B
:100210006091F5027091F602841B950BA60BB70B4B
:100220004091EF025091F0026091F1027091F20260
:1002300084179507A607B707B0F28FEF9FEF0895D1
:10024000FC01918D828D981731F0828DE80FF11DA0
:10025000858D90E008958FEF9FEF0895FC01918DBB
:10026000228D892F90E0805C9F4F821B91098F73B4
:10027000992708958BEE92E00E942E0121E0892BB0
:1002800009F420E0822F089580E090E0892B29F086
:100290000E943A0181110C9400000895FC01A48D84
:1002A000A80FB92FB11DA35ABF4F2C91848D90E098
:1002B00001968F739927848FA689B7892C93A0897B
:1002C000B1898C91837080648C93938D848D981305
:1002D00006C00288F389E02D80818F7D8083089598
:1002E000EF92FF920F931F93CF93DF93EC0181E086
:1002F000888F9B8D8C8D98131AC0E889F98980812D
:1003000085FF15C09FB7F894EE89FF896083E8895F
:10031000F98980818370806480839FBF81E090E051
:10032000DF91CF911F910F91FF90EF900895F62EDE
:100330000B8D10E00F5F1F4F0F731127E02E8C8D78
:100340008E110CC00FB607FCFACFE889F9898081BD
:1003500085FFF5CFCE010E944E01F1CFEB8DEC0F62
:10036000FD2FF11DE35AFF4FF0829FB7F8940B8FDA
:10037000EA89FB8980818062CFCFCF93DF93EC0144
:10038000888D8823B9F0AA89BB89E889F9898C917D
:1003900085FD03C0808186FD0DC00FB607FCF7CF39
:1003A0008C9185FFF2CF808185FFEDCFCE010E9439
:1003B0004E01E9CFDF91CF91089590E0FC01EE5816
:1003C000FF4F2491FC01E255FF4F3491FC01E656AA
:1003D000FF4FE491EE23C9F0222339F0233001F1DD
:1003E000A8F4213019F1223029F1F0E0EE0FFF1FBF
:1003F000E057FF4FA591B4918FB7F894EC9161113C
:1004000026C030953E233C938FBF08952730A9F036
:100410002830C9F0243049F7809180008F7D03C0D7
:10042000809180008F7780938000DFCF84B58F77B5
:1004300084BDDBCF84B58F7DFBCF8091B0008F77FB
:100440008093B000D2CF8091B0008F7DF9CF3E2B4A
:10045000DACFCF93DF9390E0FC01E255FF4F249178
:1004600086569F4FFC0184918823D1F090E0880F3D
:10047000991FFC01E859FF4FA591B491FC01E05789
:10048000FF4FC591D49161110EC09FB7F8948C9124
:10049000E22FE0958E238C932881E223E8839FBF8F
:1004A000DF91CF9108958FB7F894EC91E22BEC9304
:1004B0008FBFF6CF3FB7F8948091D7029091D802C2
:1004C000A091D902B091DA0226B5A89B05C02F3FB2
:1004D00019F00196A11DB11D3FBFBA2FA92F982F6A
:1004E0008827BC01CD01620F711D811D911D42E065
:1004F000660F771F881F991F4A95D1F708958F922D
:100500009F92AF92BF92CF92DF92EF92FF924B01F8
:100510005C010E945A026B017C010E945A026C1914
:100520007D098E099F09683E734081059105A8F3F6
:1005300021E0821A9108A108B10888EEC80E83E074
:10054000D81EE11CF11C81149104A104B10429F707
:10055000FF90EF90DF90CF90BF90AF909F908F90E3
:1005600008952091DD023091DE022817390771F4D9
:100570009091DB028091DC02981741F0E091DB0260
:10058000F0E0EA56FD4F808190E008958FEF9FEFF5
:1005900008950895EF92FF920F931F93CF93DF93E7
:1005A000DC015C96ED90FC905D97E114F10479F428
:1005B00081E090E013969C938E93129790E080E0F8
:1005C000DF91CF911F910F91FF90EF900895519679
:1005D000ED91FC91529750968C915097982F909551
:1005E0000FB75E962C915E97122F127021FD6095C9
:1005F000F8942081112319F1282B2083E7012197FA
:10060000F1F728E0462F50E0308160FF1AC0382B08
:100610003083E7012197F1F7BA017595679521506D
:1006200089F7112381F08081892380830FBF5C9635
:100630008D919C910197F1F781E090E0C1CF292342
:10064000DCCF3923E5CF9081892BEFCF2091DD02DC
:100650003091DE022817390771F48091DC02209175
:10066000DB0290E0805C9F4F821B910960E470E0A8
:100670000E94330D089590E080E008952091DD02FE
:100680003091DE0228173907B9F49091DB0280918E
:10069000DC02981789F0E091DB02F0E0EA56FD4FAA
:1006A00080812091DB0230E02F5F3F4F2F73332793
:1006B0002093DB0290E008958FEF9FEF0895209143
:1006C0002502260F3327331F21323105ECF4209108
:1006D0006E02FC0190E080E0243069F082E0089531
:1006E000A09125022191AC014B5F5D4FA40FB52F66
:1006F000B11D2C930196861798F380912502680FFF
:100700006093250280E0089581E0089510926E02C2
:1007100081E080936D021092480261E082E10E94C4
:10072000DD0161E083E10E94DD01E9EBF0E0808121
:100730008E7F808380818D7F808388E48093B80062
:1007400085E48093BC000895CF93DF9391E090936C
:1007500004028823B9F0C091B800D091BA0080910A
:10076000BC008A7B8093BC0060E082E10E94DD01D6
:1007700060E083E10E94DD010E948603D093BA000D
:10078000C093B800DF91CF910895E091E602809187
:10079000E502E81730F4F0E0EC51FE4F808190E084
:1007A00008958FEF9FEF08959091E6028091E50202
:1007B0002FEF3FEF981748F4E92FF0E0EC51FE4F90
:1007C000208130E09F5F9093E602C90108958091F7
:1007D000E5029091E602891B990B0895CF92DF9272
:1007E000EF92FF920F931F93CF93DF937C01CB0186
:1007F0008A0120917402222389F0EB016B01C40E5F
:10080000D51ECC15DD0569F06991D701ED91FC91FC
:100810000190F081E02DC7010995F3CF642F0E946C
:100820005F03C801DF91CF911F910F91FF90EF906F
:10083000DF90CF900895CF93DF931F92CDB7DEB7AF
:100840006983209174022223F9F02091E30220327F
:1008500058F021E030E0FC013383228390E080E017
:100860000F90DF91CF9108958091E402E82FF0E09E
:10087000EB58FD4F998190838F5F8093E4028093C2
:10088000E30281E090E0ECCF61E0CE0101960E94AE
:100890005F03F7CFCF92DF92EF92FF920F931F93F8
:1008A000CF93DF93FC01C48121E020937402C093B5
:1008B00095021092E4021092E3028385682B88E887
:1008C00093E00E941B04D091E302D13208F092C061
:1008D0000E945A026B017C0180916E02811165C0F9
:1008E00082E080936E0281E080936D028FEF8093AF
:1008F0006C0210926B02D0936A02A5E7B2E0EAE4C0
:10090000F2E080E0D81385C010924902809149023C
:10091000CC0FC82BC093490280914802813009F066
:100920007CC0109248020E945A026B017C018091A7
:1009300049028093BB008091700290917102A09156
:100940007202B0917302892B8A2B8B2B99F00E9433
:100950005A0200917002109171022091720230913E
:1009600073026C197D098E099F090617170728075E
:100970003907E0F18091BC0083FDD9CF85EC8093ED
:10098000BC000E945A026B017C0180916E02823091
:1009900009F445C080916C028F3F61F180916C0237
:1009A000803241F180916C0225C08091700290915B
:1009B0007102A0917202B0917302892B8A2B8B2B4A
:1009C00009F48ACF0E945A020091700210917102BC
:1009D00020917202309173026C197D098E099F0972
:1009E000061717072807390708F076CF80916F029E
:1009F0000E94A4031092E4021092E3021092740287
:100A0000DF91CF911F910F91FF90EF90DF90CF90EA
:100A100008959D9191938F5F75CF85EEB0CF8091B2
:100A2000700290917102A0917202B0917302892BB1
:100A30008A2B8B2B09F4A9CF0E945A0200917002D5
:100A40001091710220917202309173026C197D092C
:100A50008E099F09061717072807390708F095CF51
:100A6000C5CF90E080E008950F931F93CF938C0142
:100A7000C62F0E944A046C2F6460C8010E944A0479
:100A80006C2F6B7FC8010E944A0483EC90E00197B1
:100A9000F1F7CF911F910F9108950F931F93CF936B
:100AA000DF938C01D62FC42F607F642B0E94340506
:100AB00080E1D89FB00111246C2BC801DF91CF9148
:100AC0001F910F910C94340540E061E08FEB93E0AF
:100AD0000E944D058BE39FE10197F1F70895CF93B5
:100AE000DF93823028F09091C40398609093C40300
:100AF0008093C70362E370E080E090E00E947F0291
:100B00006091CA038FEB93E00E944A0468EE73E0A1
:100B100080E090E00E947F0260E38FEB93E00E9410
:100B20003405CBE4D6E4CE010197F1F760E38FEB17
:100B300093E00E9434052197F1F760E38FEB93E097
:100B40000E94340583E592E00197F1F760E28FEBB4
:100B500093E00E9434056091C403606240E08FEB33
:100B600093E00E944D0584E08093C50340E06CE073
:100B70008FEB93E00E944D050E94640582E0809314
:100B8000C60340E066E08FEB93E00E944D0540E035
:100B900062E08FEB93E00E944D058BE39FE10197AC
:100BA000F1F7DF91CF91089541E00E944D0581E07A
:100BB00090E00895FC0180819181009711F00C94E0
:100BC000FD0D08950F931F93CF93DF93EC01888160
:100BD0009981009759F02A813B812617370730F019
:100BE00081E0DF91CF911F910F9108958B016F5F8D
:100BF0007F4F0E94860E009759F0998388831B834C
:100C00000A832C813D81232B59F7FC011082E8CF08
:100C100080E0E7CFEF92FF920F931F93CF93DF9384
:100C2000EC017B01198218821B821A821D821C82B0
:100C3000FB0101900020E9F731978F01061B170B8C
:100C4000B8010E94E20528813981811113C0211564
:100C5000310519F0C9010E94FD0D198218821D820B
:100C60001C821B821A82DF91CF911F910F91FF90FE
:100C7000EF9008951D830C83B701C901DF91CF91D7
:100C80001F910F91FF90EF900C94550FFB01019075
:100C90000020E9F73197AF01461B570BDC01ED91BE
:100CA000FC910280F381E02D0994CF93DF93EC0156
:100CB00068E471E080EA93E00E94460662E571E034
:100CC00080EA93E00E94460664E670E080E090E0EF
:100CD0000E947F0265E571E080EA93E00E9446068B
:100CE00062E571E080EA93E00E94460664E670E007
:100CF00080E090E00E947F024C815D816881798173
:100D000080EA93E00E94900062E571E080EA93E05F
:100D10000E94460664E670E080E090E00E947F0258
:100D20006AE180EA93E00E94CA0264E670E080E033
:100D300090E0DF91CF910C947F0285ED8093BC0011
:100D40008091700290917102A0917202B091730231
:100D50000796A11DB11D23E0B695A7959795879598
:100D60002A95D1F72091BC0024FD03C010926E0299
:100D700008954091700250917102609172027091D9
:100D80007302452B462B472B69F30097A105B1054C
:100D900041F025E32A95F1F700000197A109B10977
:100DA000E1CF80916F020C94A4031F920F920FB6B3
:100DB0000F9211242F933F934F935F936F937F93E1
:100DC0008F939F93AF93BF93EF93FF938BEE92E03C
:100DD0000E944E01FF91EF91BF91AF919F918F9132
:100DE0007F916F915F914F913F912F910F900FBE27
:100DF0000F901F9018951F920F920FB60F9211240B
:100E00002F938F939F93EF93FF93E091FB02F091C9
:100E1000FC028081E0910103F091020382FD1BC07E
:100E20009081809104038F5F8F7320910503821757
:100E300041F0E0910403F0E0E551FD4F958F809380
:100E40000403FF91EF919F918F912F910F900FBE0F
:100E50000F901F9018958081F4CF1F920F920FB6BC
:100E60000F9211242F933F938F939F93AF93BF9330
:100E70008091E7029091E802A091E902B091EA0224
:100E80003091D60223E0230F2D3758F50196A11D8E
:100E9000B11D2093D6028093E7029093E802A093BD
:100EA000E902B093EA028091D7029091D802A09112
:100EB000D902B091DA020196A11DB11D8093D7022B
:100EC0009093D802A093D902B093DA02BF91AF9168
:100ED0009F918F913F912F910F900FBE0F901F9078
:100EE000189526E8230F0296A11DB11DD2CF1F929F
:100EF0000F920FB60F9211242F933F934F935F934E
:100F00006F937F938F939F93AF93BF93EF93FF93D1
:100F1000E091DD02F091DE02309749F0A685B785B9
:100F20008585968D91FF14C09C918923A1F4FF9132
:100F3000EF91BF91AF919F918F917F916F915F9151
:100F40004F913F912F910F900FBE0F901F901895CA
:100F50009C91892361F7A389B4899C9185898095A7
:100F600089238C93868997890197F1F7608D718D1C
:100F7000A685B785558538E020E0CB010197F1F7CC
:100F8000822F90E095958795282F4C91452309F065
:100F90002068315091F7868D81FD20958091DC028B
:100FA00090E001968F7399273091DB02381799F002
:100FB000A091DC02B0E0AA56BD4F2C938093DC02D6
:100FC000828D938D0197F1F7A389B4898C919589CE
:100FD000892B8C93ACCF868D8160868FF1CF1F9249
:100FE0000F920FB60F9211242F933F934F935F935D
:100FF0006F937F938F939F93AF93BF93EF93FF93E1
:101000008091B900887F803609F44AC0F0F58832B3
:1010100009F4A7C018F5803109F49BC0B8F48823FF
:1010200009F4F9C0883009F494C0FF91EF91BF91A1
:10103000AF919F918F917F916F915F914F913F9170
:101040002F910F900FBE0F901F901895883109F4C3
:1010500088C0803251F780936C0214C0803409F448
:101060009DC040F48033B9F38833F9F680936C0265
:1010700085ECB0C0803509F485C0883509F496C088
:10108000883499F60E949D06D0CF883909F48CC027
:1010900038F5883729F050F4883611F0803729F672
:1010A00083E080936E021092470257C0883809F49B
:1010B0007BC0803919F0803809F0B7CF80914702A2
:1010C000803208F071C0E091470281E08E0F80937A
:1010D00047028091BB00F0E0E95DFD4F80833DC099
:1010E000803B39F0E0F4803A09F479C0883A09F09D
:1010F0009CCF84E080936E0210922602109225020B
:10110000E091E102F091E2020995809125028111BE
:101110000FC081E0809325021092050209C0803C37
:1011200009F4A6CF883C09F4A3CF883B09F07DCF12
:10113000E091260281E08E0F80932602F0E0EB5FC3
:10114000FD4F80818093BB00909126028091250203
:1011500029C0809149028093BB0085EC8093BC003C
:1011600064CF90916B0280916A02981758F5E091D4
:101170006B0281E08E0F80936B02F0E0E65BFD4F27
:101180008081E9CFE0916B0281E08E0F80936B024A
:101190008091BB00F0E0E65BFD4F808390916B0295
:1011A00080916A029817C8F285E8D8CFE0916B0267
:1011B00081E08E0F80936B028091BB00F0E0E65BD4
:1011C000FD4F808380916D0281115CCF81E080931F
:1011D000480284EA8093BC0010926E0226CF85EC10
:1011E0008093BC0010926E0280914702803230F4EE
:1011F000E0914702F0E0E95DFD4F10826091470207
:1012000070E0E091DF02F091E00287E292E0099560
:10121000109247020ACF10926C0234CF1092EE0265
:101220001092ED0288EE93E0A0E0B0E08093EF0230
:101230009093F002A093F102B093F2022AE031E021
:101240003093EC022093EB0225EC30E03093F8026F
:101250002093F70224EC30E03093FA022093F90255
:1012600020EC30E03093FC022093FB0221EC30E0D4
:101270003093FE022093FD0222EC30E03093000315
:101280002093FF0226EC30E0309302032093010309
:1012900010920403109205031092060310920703A4
:1012A00010928B0310928A0380938C0390938D038A
:1012B000A0938E03B0938F032CE131E03093890328
:1012C000209388031092C2031092C10320E431E0FE
:1012D0003093C0032093BF0327E22093C30320E190
:1012E0002093C80322E02093C9031092CA031092EE
:1012F000A3031092A2038093A4039093A503A09349
:10130000A603B093A7038EE291E09093A10380938C
:10131000A0031092B7031092B6031092B903109273
:10132000B8031092BB031092BA031092BD0310923F
:10133000BC036091BE036E7F6D7F6093BE036695B4
:10134000617081E0682783E00E94DD0161E083E055
:101350000E942902E1EBF0E0E491E093B003EDE9B3
:10136000F0E0E491F0E0EE0FFF1FE057FF4F8591B2
:1013700094919093B2038093B10360E082E00E9465
:1013800029028091BE0381FD04C061E082E00E94D9
:10139000DD0182E08093AC03E0EBF0E0E491E093C8
:1013A000AD03ECE9F0E0E491F0E0EE0FFF1FEA5747
:1013B000FF4F859194919093AF038093AE036BE6BA
:1013C00071E084E993E00E940A0660E771E08AE92F
:1013D00093E00C940A06CF93DF93CDB7DEB72E9738
:1013E0000FB6F894DEBF0FBECDBF789484B582608F
:1013F00084BD84B5816084BD85B5826085BD85B5B9
:10140000816085BD80916E00816080936E00109236
:1014100081008091810082608093810080918100B1
:101420008160809381008091800081608093800042
:101430008091B10084608093B1008091B0008160A0
:101440008093B00080917A00846080937A008091CC
:101450007A00826080937A0080917A008160809324
:101460007A0080917A00806880937A001092C1009F
:10147000E091FB02F091FC0282E08083E091F702B0
:10148000F091F8021082E091F902F091FA028FECEB
:10149000808310920303E091FF02F091000386E045
:1014A0008083E091FD02F091FE0280818061808363
:1014B000E091FD02F091FE02808188608083E091DE
:1014C000FD02F091FE02808180688083E091FD0240
:1014D000F091FE0280818F7D80831092BB03109279
:1014E000BA031092B9031092B8031092B703109286
:1014F000B6038DE991E09093BD038093BC03909176
:10150000AC03963108F047C02DEB30E03093B703C1
:101510002093B6032BE931E03093B9032093B8034D
:101520002CE231E03093BB032093BA032091680092
:1015300084E0983048F031E09E3008F430E081E0FB
:1015400001C0880F3A95EAF7822B809368002DE658
:1015500030E0983050F02BE630E09E3030F02CE652
:1015600030E0963110F030E020E03093B403209367
:10157000B303292F30E0983008F0B7C081E001C0F4
:10158000880F9A95EAF78093B5038091BC039091F8
:10159000BD030197F1F78091BA039091BB03892BAA
:1015A00049F1E091DD02F091DE0283E0E03AF807D4
:1015B00009F1309739F0A389B4899C918589809588
:1015C00089238C938091BE038E7F8093BE031092FB
:1015D000DC021092DB0280EA93E09093DE028093BB
:1015E000DD02E091B303F091B40380819091B503E3
:1015F000892B808382E00E946F051092E602109290
:10160000E5021092E4021092E3020E9486038DE844
:1016100090E09093E2028093E1028EE890E0909354
:10162000E0028093DF021092C4038091C9030E94FC
:101630006F0588E08093CA0360E08FEB93E00E941F
:101640004A0465E771E08FEB93E00E94460661E093
:1016500088E00E94290261E089E00E94290260E09E
:1016600088E00E94DD0160E089E00E94DD0180EAFF
:10167000A82E83E0B82E90E0692E90E0792E64E5E4
:1016800071E0CE0107960E940A068BEE92E00E945E
:101690002E01181619060CF0BCC064E571E0CE01ED
:1016A00001960E940A060E94E00097FD2BC08A3036
:1016B000910541F18D871E860D811E810F5F1F4FA1
:1016C000B801CE0101960E94E205882361F32981C9
:1016D0003A818D819E81BE01635F7F4F820F931F90
:1016E0000E94550F1E830D83DECF9E3040F428509C
:1016F000310981E001C0880F2A95EAF744CF2E50C6
:101700003109F7CF8F8198850097E1F169817A815E
:1017100061157105A9F149855A852D813E814217D0
:10172000530770F10E94550F8D819E819C878B8796
:101730001E821D82CE0101960E94DA05CF80D884D8
:10174000C114D10409F465C00B851C85760101150F
:10175000110551F568EE73E080E090E00E947F0291
:10176000CE0107960E94DA056114710409F487CF4F
:101770000E943A01882309F482CF0E9400007FCFA3
:101780000E94FD0D89819A8198878F838B819C812E
:101790009A8789878D819E819C878B871A8219827F
:1017A0001C821B82C5CF74014701EFEF8E1A9E0A7F
:1017B000F7018081082E000C990B0E94F00C892BF8
:1017C00091F7015011090C0D1D1DF8018081082EA3
:1017D000000C990B0E94F00C892B31F00E151F059F
:1017E00018F001501109F1CF0F5F1F4FA8014E19DA
:1017F0005F095C874B87CE14DF0420F4B701C60174
:101800000E94430FEF81F8858B859C85E80FF91FB7
:1018100010828B859C85892B09F49CCFEF81F885FC
:101820008081882309F496CF04E913E01A82198293
:101830001C821B821E821D82F801E080F180E1146F
:10184000F104B9F0C480D580B601CE0101960E94A2
:10185000E20529813A81811124C02115310519F051
:10186000C9010E94FD0D1A8219821E821D821C82EE
:101870001B822B853C858D819E8128173907D9F4E1
:101880008F81988569817A81009709F441C061153B
:10189000710571F4232B09F448C0FC01808190E0AC
:1018A00042C0DE82CD82B701C9010E94550FE1CF4F
:1018B0000E944C0F38C0CE0101960E94DA050A5FE3
:1018C0001F4FA016B10609F0B1CF0E94640561EB6D
:1018D00071E08FEB93E00E94460661E089E00E9490
:1018E000DD016FEB71E0CE0101960E940A06CE0188
:1018F00001960E945506CE0101960E94DA0568E81D
:1019000073E180E090E00E947F0260E089E033C0F4
:101910006115710551F0232B41F0FB01808190E0AE
:10192000919581959109892B31F6CE0101960E94FE
:10193000DA050E94640562E871E08FEB93E00E9493
:10194000460661E088E00E94DD0161E971E0CE01B8
:1019500001960E940A06CE0101960E945506CE010C
:1019600001960E94DA0568E873E180E090E00E9449
:101970007F0260E088E00E94DD0168E873E180E0BA
:1019800090E00E947F020E94640565E771E08FEBA2
:1019900093E00E944606DECE8AE993E00E94DA05D3
:1019A00084E993E00E94DA058EE291E09093A1032E
:1019B0008093A0038091DD029091DE02805A9340D3
:1019C00071F4E091B303F091B40390818091B50379
:1019D0008095892380831092DE021092DD020895A3
:1019E00091110C94F90C803219F089508550C8F788
:1019F00008959927882708952F923F924F925F92DA
:101A00006F927F928F929F92AF92BF92CF92DF920E
:101A1000EF92FF920F931F93CF93DF93CDB7DEB773
:101A2000CA1BDB0B0FB6F894DEBF0FBECDBF099407
:101A30002A88398848885F846E847D848C849B845E
:101A4000AA84B984C884DF80EE80FD800C811B816C
:101A5000AA81B981CE0FD11D0FB6F894DEBF0FBE9B
:101A6000CDBFED01089597FB072E16F4009407D023
:101A700077FD09D00E94470D07FC05D03EF49095F4
:101A800081959F4F0895709561957F4F0895AA1B8A
:101A9000BB1B51E107C0AA1FBB1FA617B70710F059
:101AA000A61BB70B881F991F5A95A9F7809590958B
:101AB000BC01CD010895EE0FFF1F0590F491E02DBC
:101AC00009940F931F93CF93DF938230910510F405
:101AD00082E090E0E091CD03F091CE0330E020E091
:101AE000B0E0A0E0309799F42115310509F44AC01F
:101AF000281B390B24303105D8F58A819B8161156B
:101B0000710589F1FB0193838283FE0111C040813D
:101B100051810281138148175907E0F0481759078E
:101B200099F4109761F012960C93129713961C93E8
:101B30003296CF01DF91CF911F910F9108950093BD
:101B4000CD031093CE03F4CF2115310551F0421788
:101B5000530738F0A901DB019A01BD01DF01F8014B
:101B6000C1CFEF01F9CF9093CE038093CD03CDCFBA
:101B7000FE01E20FF31F81939193225031093983C3
:101B80002883D7CF2091CB033091CC03232B41F472
:101B900020910201309103013093CC032093CB03B9
:101BA00020910001309101012115310541F42DB73B
:101BB0003EB74091040150910501241B350BE09183
:101BC000CB03F091CC03E217F307A0F42E1B3F0BDD
:101BD0002817390778F0AC014E5F5F4F241735079F
:101BE00048F04E0F5F1F5093CC034093CB0381937B
:101BF00091939FCFF0E0E0E09CCFCF93DF930097ED
:101C0000E9F0FC01329713821282A091CD03B091CA
:101C1000CE03ED0130E020E01097A1F42081318166
:101C2000820F931F2091CB033091CC0328173907E3
:101C300009F061C0F093CC03E093CB03DF91CF9127
:101C40000895EA01CE17DF07E8F54A815B819E011E
:101C500041155105B1F7E901FB83EA834991599197
:101C6000C40FD51FEC17FD0761F4808191810296A6
:101C7000840F951FE90199838883828193819B83D7
:101C80008A83F0E0E0E012968D919C911397009783
:101C9000B9F52D913C911197CD010296820F931FBA
:101CA0002091CB033091CC032817390739F63097B0
:101CB00051F51092CE031092CD03B093CC03A093B4
:101CC000CB03BCCFD383C28340815181840F951F46
:101CD000C817D90761F44E5F5F4F88819981480F1B
:101CE000591F518340838A819B819383828321156D
:101CF000310509F0B0CFF093CE03E093CD039ECF32
:101D0000FD01DC01C0CF13821282D7CFB0E0A0E08A
:101D1000ECE8FEE00C94FE0C8C01009751F4CB0132
:101D20000E94610D8C01C801CDB7DEB7E0E10C94D3
:101D30001A0DFC01E60FF71F9C0122503109E21732
:101D4000F30708F49DC0D901CD91DC911197C61716
:101D5000D70798F0C530D10530F3CE010497861728
:101D6000970708F3C61BD70B2297C193D1936D93A6
:101D70007C93CF010E94FD0DD6CF5B01AC1ABD0A4A
:101D80004C018C0E9D1EA091CD03B091CE03512C21
:101D9000412CF12CE12C109731F58091CB039091DF
:101DA000CC038815990509F05CC04616570608F063
:101DB00058C08091000190910101009741F48DB7C6
:101DC0009EB74091040150910501841B950BE817C3
:101DD000F90708F055C0F093CC03E093CB03F90169
:101DE00071836083A0CF8D919C91119712966C9016
:101DF000129713967C901397A815B90559F56C01A5
:101E000042E0C40ED11CCA14DB0420F1AC014A1913
:101E10005B09DA011296159780F062827382518312
:101E20004083D9016D937C93E114F10471F0D701E3
:101E30001396FC93EE93129776CF22968C0F9D1FEC
:101E4000F90191838083F301EFCFF093CE03E09308
:101E5000CD0369CF4816590608F42C017D01D30142
:101E60009ACFCB010E94610D7C01009749F0AE0131
:101E7000B8010E94430FC8010E94FD0D870153CF96
:101E800010E000E050CFFB01DC0102C001900D9298
:101E900041505040D8F70895FB01DC018D9101902D
:101EA00080190110D9F3990B0895FB01DC01019011
:101EB0000D920020E1F7089510E0C2E6D0E004C0E2
:101EC000FE010E945B0D2196C336D107C9F7F89435
:021ED000FFCF42
:101ED2000000CF0380000000000070019000BD00F0
:101EE200BD012E01CC002001000000001B04EE0306
:101EF2003105C902E703D403C50300000000CA028A
:101F020090003105C90226033E03B1020000000021
:101F1200D405900031058F0041542B434D47463D77
:101F220031000D0A0041542B434D47533D222B31C2
:101F320032333435363738393022003132333400D7
:101F4200414243440053797374656D205265616464
:101F52007900416363657373204772616E746564CF
:101F620000416363657373204772616E7465643AFE
:101F72002041726D6F727920556E6C6F636B656470
:101F8200004163636573732044656E696564004153
:101F920063636573732044656E6965643A20556EA8
:101FA200617574686F72697A656420417474656DD5
:041FB2007074000047
:00000001FF
